{
	"interfaces/animales/AnimalHandler.sol": {
		"AnimalHandler": {
			"abi": [
				{
					"inputs": [],
					"name": "animal",
					"outputs": [
						{
							"internalType": "contract IAnimal",
							"name": "",
							"type": "address"
						}
					],
					"stateMutability": "view",
					"type": "function"
				},
				{
					"inputs": [],
					"name": "interactuarConAnimal",
					"outputs": [
						{
							"internalType": "string",
							"name": "sonido",
							"type": "string"
						},
						{
							"internalType": "string",
							"name": "comer",
							"type": "string"
						},
						{
							"internalType": "string",
							"name": "nombre",
							"type": "string"
						},
						{
							"internalType": "uint256",
							"name": "edad",
							"type": "uint256"
						}
					],
					"stateMutability": "view",
					"type": "function"
				},
				{
					"inputs": [
						{
							"internalType": "address",
							"name": "_animalAddress",
							"type": "address"
						}
					],
					"name": "setAnimal",
					"outputs": [],
					"stateMutability": "nonpayable",
					"type": "function"
				}
			],
			"devdoc": {
				"kind": "dev",
				"methods": {},
				"version": 1
			},
			"evm": {
				"assembly": "    /* \"interfaces/animales/AnimalHandler.sol\":82:570  contract AnimalHandler {... */\n  mstore(0x40, 0x80)\n  callvalue\n  dup1\n  iszero\n  tag_1\n  jumpi\n  0x00\n  dup1\n  revert\ntag_1:\n  pop\n  dataSize(sub_0)\n  dup1\n  dataOffset(sub_0)\n  0x00\n  codecopy\n  0x00\n  return\nstop\n\nsub_0: assembly {\n        /* \"interfaces/animales/AnimalHandler.sol\":82:570  contract AnimalHandler {... */\n      mstore(0x40, 0x80)\n      callvalue\n      dup1\n      iszero\n      tag_1\n      jumpi\n      0x00\n      dup1\n      revert\n    tag_1:\n      pop\n      jumpi(tag_2, lt(calldatasize, 0x04))\n      shr(0xe0, calldataload(0x00))\n      dup1\n      0xbff988e9\n      eq\n      tag_3\n      jumpi\n      dup1\n      0xcb5debd1\n      eq\n      tag_4\n      jumpi\n      dup1\n      0xeada0edb\n      eq\n      tag_5\n      jumpi\n    tag_2:\n      0x00\n      dup1\n      revert\n        /* \"interfaces/animales/AnimalHandler.sol\":244:568  function interactuarConAnimal() public view returns (string memory sonido, string memory comer, string memory nombre, uint256 edad) {... */\n    tag_3:\n      tag_6\n      tag_7\n      jump\t// in\n    tag_6:\n      mload(0x40)\n      tag_8\n      swap5\n      swap4\n      swap3\n      swap2\n      swap1\n      tag_9\n      jump\t// in\n    tag_8:\n      mload(0x40)\n      dup1\n      swap2\n      sub\n      swap1\n      return\n        /* \"interfaces/animales/AnimalHandler.sol\":139:238  function setAnimal(address _animalAddress) public {... */\n    tag_4:\n      tag_10\n      0x04\n      dup1\n      calldatasize\n      sub\n      dup2\n      add\n      swap1\n      tag_11\n      swap2\n      swap1\n      tag_12\n      jump\t// in\n    tag_11:\n      tag_13\n      jump\t// in\n    tag_10:\n      stop\n        /* \"interfaces/animales/AnimalHandler.sol\":111:132  IAnimal public animal */\n    tag_5:\n      tag_14\n      tag_15\n      jump\t// in\n    tag_14:\n      mload(0x40)\n      tag_16\n      swap2\n      swap1\n      tag_17\n      jump\t// in\n    tag_16:\n      mload(0x40)\n      dup1\n      swap2\n      sub\n      swap1\n      return\n        /* \"interfaces/animales/AnimalHandler.sol\":244:568  function interactuarConAnimal() public view returns (string memory sonido, string memory comer, string memory nombre, uint256 edad) {... */\n    tag_7:\n        /* \"interfaces/animales/AnimalHandler.sol\":297:317  string memory sonido */\n      0x60\n        /* \"interfaces/animales/AnimalHandler.sol\":319:338  string memory comer */\n      dup1\n        /* \"interfaces/animales/AnimalHandler.sol\":340:360  string memory nombre */\n      0x60\n        /* \"interfaces/animales/AnimalHandler.sol\":362:374  uint256 edad */\n      0x00\n        /* \"interfaces/animales/AnimalHandler.sol\":395:401  animal */\n      dup1\n      0x00\n      swap1\n      sload\n      swap1\n      0x0100\n      exp\n      swap1\n      div\n      0xffffffffffffffffffffffffffffffffffffffff\n      and\n        /* \"interfaces/animales/AnimalHandler.sol\":395:412  animal.haceSonido */\n      0xffffffffffffffffffffffffffffffffffffffff\n      and\n      0x4aa7a299\n        /* \"interfaces/animales/AnimalHandler.sol\":395:414  animal.haceSonido() */\n      mload(0x40)\n      dup2\n      0xffffffff\n      and\n      0xe0\n      shl\n      dup2\n      mstore\n      0x04\n      add\n      0x00\n      mload(0x40)\n      dup1\n      dup4\n      sub\n      dup2\n      dup7\n      gas\n      staticcall\n      iszero\n      dup1\n      iszero\n      tag_20\n      jumpi\n      returndatasize\n      0x00\n      dup1\n      returndatacopy\n      revert(0x00, returndatasize)\n    tag_20:\n      pop\n      pop\n      pop\n      pop\n      mload(0x40)\n      returndatasize\n      0x00\n      dup3\n      returndatacopy\n      returndatasize\n      not(0x1f)\n      0x1f\n      dup3\n      add\n      and\n      dup3\n      add\n      dup1\n      0x40\n      mstore\n      pop\n      dup2\n      add\n      swap1\n      tag_21\n      swap2\n      swap1\n      tag_22\n      jump\t// in\n    tag_21:\n        /* \"interfaces/animales/AnimalHandler.sol\":386:414  sonido = animal.haceSonido() */\n      swap4\n      pop\n        /* \"interfaces/animales/AnimalHandler.sol\":432:438  animal */\n      0x00\n      dup1\n      sload\n      swap1\n      0x0100\n      exp\n      swap1\n      div\n      0xffffffffffffffffffffffffffffffffffffffff\n      and\n        /* \"interfaces/animales/AnimalHandler.sol\":432:443  animal.come */\n      0xffffffffffffffffffffffffffffffffffffffff\n      and\n      0x192e050d\n        /* \"interfaces/animales/AnimalHandler.sol\":432:445  animal.come() */\n      mload(0x40)\n      dup2\n      0xffffffff\n      and\n      0xe0\n      shl\n      dup2\n      mstore\n      0x04\n      add\n      0x00\n      mload(0x40)\n      dup1\n      dup4\n      sub\n      dup2\n      dup7\n      gas\n      staticcall\n      iszero\n      dup1\n      iszero\n      tag_24\n      jumpi\n      returndatasize\n      0x00\n      dup1\n      returndatacopy\n      revert(0x00, returndatasize)\n    tag_24:\n      pop\n      pop\n      pop\n      pop\n      mload(0x40)\n      returndatasize\n      0x00\n      dup3\n      returndatacopy\n      returndatasize\n      not(0x1f)\n      0x1f\n      dup3\n      add\n      and\n      dup3\n      add\n      dup1\n      0x40\n      mstore\n      pop\n      dup2\n      add\n      swap1\n      tag_25\n      swap2\n      swap1\n      tag_22\n      jump\t// in\n    tag_25:\n        /* \"interfaces/animales/AnimalHandler.sol\":424:445  comer = animal.come() */\n      swap3\n      pop\n        /* \"interfaces/animales/AnimalHandler.sol\":464:470  animal */\n      0x00\n      dup1\n      sload\n      swap1\n      0x0100\n      exp\n      swap1\n      div\n      0xffffffffffffffffffffffffffffffffffffffff\n      and\n        /* \"interfaces/animales/AnimalHandler.sol\":464:480  animal.getNombre */\n      0xffffffffffffffffffffffffffffffffffffffff\n      and\n      0xd75cbf9b\n        /* \"interfaces/animales/AnimalHandler.sol\":464:482  animal.getNombre() */\n      mload(0x40)\n      dup2\n      0xffffffff\n      and\n      0xe0\n      shl\n      dup2\n      mstore\n      0x04\n      add\n      0x00\n      mload(0x40)\n      dup1\n      dup4\n      sub\n      dup2\n      dup7\n      gas\n      staticcall\n      iszero\n      dup1\n      iszero\n      tag_27\n      jumpi\n      returndatasize\n      0x00\n      dup1\n      returndatacopy\n      revert(0x00, returndatasize)\n    tag_27:\n      pop\n      pop\n      pop\n      pop\n      mload(0x40)\n      returndatasize\n      0x00\n      dup3\n      returndatacopy\n      returndatasize\n      not(0x1f)\n      0x1f\n      dup3\n      add\n      and\n      dup3\n      add\n      dup1\n      0x40\n      mstore\n      pop\n      dup2\n      add\n      swap1\n      tag_28\n      swap2\n      swap1\n      tag_22\n      jump\t// in\n    tag_28:\n        /* \"interfaces/animales/AnimalHandler.sol\":455:482  nombre = animal.getNombre() */\n      swap2\n      pop\n        /* \"interfaces/animales/AnimalHandler.sol\":499:505  animal */\n      0x00\n      dup1\n      sload\n      swap1\n      0x0100\n      exp\n      swap1\n      div\n      0xffffffffffffffffffffffffffffffffffffffff\n      and\n        /* \"interfaces/animales/AnimalHandler.sol\":499:513  animal.getEdad */\n      0xffffffffffffffffffffffffffffffffffffffff\n      and\n      0x5cfd4af5\n        /* \"interfaces/animales/AnimalHandler.sol\":499:515  animal.getEdad() */\n      mload(0x40)\n      dup2\n      0xffffffff\n      and\n      0xe0\n      shl\n      dup2\n      mstore\n      0x04\n      add\n      0x20\n      mload(0x40)\n      dup1\n      dup4\n      sub\n      dup2\n      dup7\n      gas\n      staticcall\n      iszero\n      dup1\n      iszero\n      tag_30\n      jumpi\n      returndatasize\n      0x00\n      dup1\n      returndatacopy\n      revert(0x00, returndatasize)\n    tag_30:\n      pop\n      pop\n      pop\n      pop\n      mload(0x40)\n      returndatasize\n      not(0x1f)\n      0x1f\n      dup3\n      add\n      and\n      dup3\n      add\n      dup1\n      0x40\n      mstore\n      pop\n      dup2\n      add\n      swap1\n      tag_31\n      swap2\n      swap1\n      tag_32\n      jump\t// in\n    tag_31:\n        /* \"interfaces/animales/AnimalHandler.sol\":492:515  edad = animal.getEdad() */\n      swap1\n      pop\n        /* \"interfaces/animales/AnimalHandler.sol\":244:568  function interactuarConAnimal() public view returns (string memory sonido, string memory comer, string memory nombre, uint256 edad) {... */\n      swap1\n      swap2\n      swap3\n      swap4\n      jump\t// out\n        /* \"interfaces/animales/AnimalHandler.sol\":139:238  function setAnimal(address _animalAddress) public {... */\n    tag_13:\n        /* \"interfaces/animales/AnimalHandler.sol\":216:230  _animalAddress */\n      dup1\n        /* \"interfaces/animales/AnimalHandler.sol\":199:205  animal */\n      0x00\n      dup1\n        /* \"interfaces/animales/AnimalHandler.sol\":199:231  animal = IAnimal(_animalAddress) */\n      0x0100\n      exp\n      dup2\n      sload\n      dup2\n      0xffffffffffffffffffffffffffffffffffffffff\n      mul\n      not\n      and\n      swap1\n      dup4\n      0xffffffffffffffffffffffffffffffffffffffff\n      and\n      mul\n      or\n      swap1\n      sstore\n      pop\n        /* \"interfaces/animales/AnimalHandler.sol\":139:238  function setAnimal(address _animalAddress) public {... */\n      pop\n      jump\t// out\n        /* \"interfaces/animales/AnimalHandler.sol\":111:132  IAnimal public animal */\n    tag_15:\n      0x00\n      dup1\n      sload\n      swap1\n      0x0100\n      exp\n      swap1\n      div\n      0xffffffffffffffffffffffffffffffffffffffff\n      and\n      dup2\n      jump\t// out\n        /* \"#utility.yul\":7:106   */\n    tag_34:\n        /* \"#utility.yul\":59:65   */\n      0x00\n        /* \"#utility.yul\":93:98   */\n      dup2\n        /* \"#utility.yul\":87:99   */\n      mload\n        /* \"#utility.yul\":77:99   */\n      swap1\n      pop\n        /* \"#utility.yul\":7:106   */\n      swap2\n      swap1\n      pop\n      jump\t// out\n        /* \"#utility.yul\":112:281   */\n    tag_35:\n        /* \"#utility.yul\":196:207   */\n      0x00\n        /* \"#utility.yul\":230:236   */\n      dup3\n        /* \"#utility.yul\":225:228   */\n      dup3\n        /* \"#utility.yul\":218:237   */\n      mstore\n        /* \"#utility.yul\":270:274   */\n      0x20\n        /* \"#utility.yul\":265:268   */\n      dup3\n        /* \"#utility.yul\":261:275   */\n      add\n        /* \"#utility.yul\":246:275   */\n      swap1\n      pop\n        /* \"#utility.yul\":112:281   */\n      swap3\n      swap2\n      pop\n      pop\n      jump\t// out\n        /* \"#utility.yul\":287:426   */\n    tag_36:\n        /* \"#utility.yul\":376:382   */\n      dup3\n        /* \"#utility.yul\":371:374   */\n      dup2\n        /* \"#utility.yul\":366:369   */\n      dup4\n        /* \"#utility.yul\":360:383   */\n      mcopy\n        /* \"#utility.yul\":417:418   */\n      0x00\n        /* \"#utility.yul\":408:414   */\n      dup4\n        /* \"#utility.yul\":403:406   */\n      dup4\n        /* \"#utility.yul\":399:415   */\n      add\n        /* \"#utility.yul\":392:419   */\n      mstore\n        /* \"#utility.yul\":287:426   */\n      pop\n      pop\n      pop\n      jump\t// out\n        /* \"#utility.yul\":432:534   */\n    tag_37:\n        /* \"#utility.yul\":473:479   */\n      0x00\n        /* \"#utility.yul\":524:526   */\n      0x1f\n        /* \"#utility.yul\":520:527   */\n      not\n        /* \"#utility.yul\":515:517   */\n      0x1f\n        /* \"#utility.yul\":508:513   */\n      dup4\n        /* \"#utility.yul\":504:518   */\n      add\n        /* \"#utility.yul\":500:528   */\n      and\n        /* \"#utility.yul\":490:528   */\n      swap1\n      pop\n        /* \"#utility.yul\":432:534   */\n      swap2\n      swap1\n      pop\n      jump\t// out\n        /* \"#utility.yul\":540:917   */\n    tag_38:\n        /* \"#utility.yul\":628:631   */\n      0x00\n        /* \"#utility.yul\":656:695   */\n      tag_69\n        /* \"#utility.yul\":689:694   */\n      dup3\n        /* \"#utility.yul\":656:695   */\n      tag_34\n      jump\t// in\n    tag_69:\n        /* \"#utility.yul\":711:782   */\n      tag_70\n        /* \"#utility.yul\":775:781   */\n      dup2\n        /* \"#utility.yul\":770:773   */\n      dup6\n        /* \"#utility.yul\":711:782   */\n      tag_35\n      jump\t// in\n    tag_70:\n        /* \"#utility.yul\":704:782   */\n      swap4\n      pop\n        /* \"#utility.yul\":791:856   */\n      tag_71\n        /* \"#utility.yul\":849:855   */\n      dup2\n        /* \"#utility.yul\":844:847   */\n      dup6\n        /* \"#utility.yul\":837:841   */\n      0x20\n        /* \"#utility.yul\":830:835   */\n      dup7\n        /* \"#utility.yul\":826:842   */\n      add\n        /* \"#utility.yul\":791:856   */\n      tag_36\n      jump\t// in\n    tag_71:\n        /* \"#utility.yul\":881:910   */\n      tag_72\n        /* \"#utility.yul\":903:909   */\n      dup2\n        /* \"#utility.yul\":881:910   */\n      tag_37\n      jump\t// in\n    tag_72:\n        /* \"#utility.yul\":876:879   */\n      dup5\n        /* \"#utility.yul\":872:911   */\n      add\n        /* \"#utility.yul\":865:911   */\n      swap2\n      pop\n        /* \"#utility.yul\":632:917   */\n      pop\n        /* \"#utility.yul\":540:917   */\n      swap3\n      swap2\n      pop\n      pop\n      jump\t// out\n        /* \"#utility.yul\":923:1000   */\n    tag_39:\n        /* \"#utility.yul\":960:967   */\n      0x00\n        /* \"#utility.yul\":989:994   */\n      dup2\n        /* \"#utility.yul\":978:994   */\n      swap1\n      pop\n        /* \"#utility.yul\":923:1000   */\n      swap2\n      swap1\n      pop\n      jump\t// out\n        /* \"#utility.yul\":1006:1124   */\n    tag_40:\n        /* \"#utility.yul\":1093:1117   */\n      tag_75\n        /* \"#utility.yul\":1111:1116   */\n      dup2\n        /* \"#utility.yul\":1093:1117   */\n      tag_39\n      jump\t// in\n    tag_75:\n        /* \"#utility.yul\":1088:1091   */\n      dup3\n        /* \"#utility.yul\":1081:1118   */\n      mstore\n        /* \"#utility.yul\":1006:1124   */\n      pop\n      pop\n      jump\t// out\n        /* \"#utility.yul\":1130:1956   */\n    tag_9:\n        /* \"#utility.yul\":1367:1371   */\n      0x00\n        /* \"#utility.yul\":1405:1408   */\n      0x80\n        /* \"#utility.yul\":1394:1403   */\n      dup3\n        /* \"#utility.yul\":1390:1409   */\n      add\n        /* \"#utility.yul\":1382:1409   */\n      swap1\n      pop\n        /* \"#utility.yul\":1455:1464   */\n      dup2\n        /* \"#utility.yul\":1449:1453   */\n      dup2\n        /* \"#utility.yul\":1445:1465   */\n      sub\n        /* \"#utility.yul\":1441:1442   */\n      0x00\n        /* \"#utility.yul\":1430:1439   */\n      dup4\n        /* \"#utility.yul\":1426:1443   */\n      add\n        /* \"#utility.yul\":1419:1466   */\n      mstore\n        /* \"#utility.yul\":1483:1561   */\n      tag_77\n        /* \"#utility.yul\":1556:1560   */\n      dup2\n        /* \"#utility.yul\":1547:1553   */\n      dup8\n        /* \"#utility.yul\":1483:1561   */\n      tag_38\n      jump\t// in\n    tag_77:\n        /* \"#utility.yul\":1475:1561   */\n      swap1\n      pop\n        /* \"#utility.yul\":1608:1617   */\n      dup2\n        /* \"#utility.yul\":1602:1606   */\n      dup2\n        /* \"#utility.yul\":1598:1618   */\n      sub\n        /* \"#utility.yul\":1593:1595   */\n      0x20\n        /* \"#utility.yul\":1582:1591   */\n      dup4\n        /* \"#utility.yul\":1578:1596   */\n      add\n        /* \"#utility.yul\":1571:1619   */\n      mstore\n        /* \"#utility.yul\":1636:1714   */\n      tag_78\n        /* \"#utility.yul\":1709:1713   */\n      dup2\n        /* \"#utility.yul\":1700:1706   */\n      dup7\n        /* \"#utility.yul\":1636:1714   */\n      tag_38\n      jump\t// in\n    tag_78:\n        /* \"#utility.yul\":1628:1714   */\n      swap1\n      pop\n        /* \"#utility.yul\":1761:1770   */\n      dup2\n        /* \"#utility.yul\":1755:1759   */\n      dup2\n        /* \"#utility.yul\":1751:1771   */\n      sub\n        /* \"#utility.yul\":1746:1748   */\n      0x40\n        /* \"#utility.yul\":1735:1744   */\n      dup4\n        /* \"#utility.yul\":1731:1749   */\n      add\n        /* \"#utility.yul\":1724:1772   */\n      mstore\n        /* \"#utility.yul\":1789:1867   */\n      tag_79\n        /* \"#utility.yul\":1862:1866   */\n      dup2\n        /* \"#utility.yul\":1853:1859   */\n      dup6\n        /* \"#utility.yul\":1789:1867   */\n      tag_38\n      jump\t// in\n    tag_79:\n        /* \"#utility.yul\":1781:1867   */\n      swap1\n      pop\n        /* \"#utility.yul\":1877:1949   */\n      tag_80\n        /* \"#utility.yul\":1945:1947   */\n      0x60\n        /* \"#utility.yul\":1934:1943   */\n      dup4\n        /* \"#utility.yul\":1930:1948   */\n      add\n        /* \"#utility.yul\":1921:1927   */\n      dup5\n        /* \"#utility.yul\":1877:1949   */\n      tag_40\n      jump\t// in\n    tag_80:\n        /* \"#utility.yul\":1130:1956   */\n      swap6\n      swap5\n      pop\n      pop\n      pop\n      pop\n      pop\n      jump\t// out\n        /* \"#utility.yul\":1962:2037   */\n    tag_41:\n        /* \"#utility.yul\":1995:2001   */\n      0x00\n        /* \"#utility.yul\":2028:2030   */\n      0x40\n        /* \"#utility.yul\":2022:2031   */\n      mload\n        /* \"#utility.yul\":2012:2031   */\n      swap1\n      pop\n        /* \"#utility.yul\":1962:2037   */\n      swap1\n      jump\t// out\n        /* \"#utility.yul\":2043:2160   */\n    tag_42:\n        /* \"#utility.yul\":2152:2153   */\n      0x00\n        /* \"#utility.yul\":2149:2150   */\n      dup1\n        /* \"#utility.yul\":2142:2154   */\n      revert\n        /* \"#utility.yul\":2166:2283   */\n    tag_43:\n        /* \"#utility.yul\":2275:2276   */\n      0x00\n        /* \"#utility.yul\":2272:2273   */\n      dup1\n        /* \"#utility.yul\":2265:2277   */\n      revert\n        /* \"#utility.yul\":2289:2415   */\n    tag_44:\n        /* \"#utility.yul\":2326:2333   */\n      0x00\n        /* \"#utility.yul\":2366:2408   */\n      0xffffffffffffffffffffffffffffffffffffffff\n        /* \"#utility.yul\":2359:2364   */\n      dup3\n        /* \"#utility.yul\":2355:2409   */\n      and\n        /* \"#utility.yul\":2344:2409   */\n      swap1\n      pop\n        /* \"#utility.yul\":2289:2415   */\n      swap2\n      swap1\n      pop\n      jump\t// out\n        /* \"#utility.yul\":2421:2517   */\n    tag_45:\n        /* \"#utility.yul\":2458:2465   */\n      0x00\n        /* \"#utility.yul\":2487:2511   */\n      tag_86\n        /* \"#utility.yul\":2505:2510   */\n      dup3\n        /* \"#utility.yul\":2487:2511   */\n      tag_44\n      jump\t// in\n    tag_86:\n        /* \"#utility.yul\":2476:2511   */\n      swap1\n      pop\n        /* \"#utility.yul\":2421:2517   */\n      swap2\n      swap1\n      pop\n      jump\t// out\n        /* \"#utility.yul\":2523:2645   */\n    tag_46:\n        /* \"#utility.yul\":2596:2620   */\n      tag_88\n        /* \"#utility.yul\":2614:2619   */\n      dup2\n        /* \"#utility.yul\":2596:2620   */\n      tag_45\n      jump\t// in\n    tag_88:\n        /* \"#utility.yul\":2589:2594   */\n      dup2\n        /* \"#utility.yul\":2586:2621   */\n      eq\n        /* \"#utility.yul\":2576:2639   */\n      tag_89\n      jumpi\n        /* \"#utility.yul\":2635:2636   */\n      0x00\n        /* \"#utility.yul\":2632:2633   */\n      dup1\n        /* \"#utility.yul\":2625:2637   */\n      revert\n        /* \"#utility.yul\":2576:2639   */\n    tag_89:\n        /* \"#utility.yul\":2523:2645   */\n      pop\n      jump\t// out\n        /* \"#utility.yul\":2651:2790   */\n    tag_47:\n        /* \"#utility.yul\":2697:2702   */\n      0x00\n        /* \"#utility.yul\":2735:2741   */\n      dup2\n        /* \"#utility.yul\":2722:2742   */\n      calldataload\n        /* \"#utility.yul\":2713:2742   */\n      swap1\n      pop\n        /* \"#utility.yul\":2751:2784   */\n      tag_91\n        /* \"#utility.yul\":2778:2783   */\n      dup2\n        /* \"#utility.yul\":2751:2784   */\n      tag_46\n      jump\t// in\n    tag_91:\n        /* \"#utility.yul\":2651:2790   */\n      swap3\n      swap2\n      pop\n      pop\n      jump\t// out\n        /* \"#utility.yul\":2796:3125   */\n    tag_12:\n        /* \"#utility.yul\":2855:2861   */\n      0x00\n        /* \"#utility.yul\":2904:2906   */\n      0x20\n        /* \"#utility.yul\":2892:2901   */\n      dup3\n        /* \"#utility.yul\":2883:2890   */\n      dup5\n        /* \"#utility.yul\":2879:2902   */\n      sub\n        /* \"#utility.yul\":2875:2907   */\n      slt\n        /* \"#utility.yul\":2872:2991   */\n      iszero\n      tag_93\n      jumpi\n        /* \"#utility.yul\":2910:2989   */\n      tag_94\n      tag_42\n      jump\t// in\n    tag_94:\n        /* \"#utility.yul\":2872:2991   */\n    tag_93:\n        /* \"#utility.yul\":3030:3031   */\n      0x00\n        /* \"#utility.yul\":3055:3108   */\n      tag_95\n        /* \"#utility.yul\":3100:3107   */\n      dup5\n        /* \"#utility.yul\":3091:3097   */\n      dup3\n        /* \"#utility.yul\":3080:3089   */\n      dup6\n        /* \"#utility.yul\":3076:3098   */\n      add\n        /* \"#utility.yul\":3055:3108   */\n      tag_47\n      jump\t// in\n    tag_95:\n        /* \"#utility.yul\":3045:3108   */\n      swap2\n      pop\n        /* \"#utility.yul\":3001:3118   */\n      pop\n        /* \"#utility.yul\":2796:3125   */\n      swap3\n      swap2\n      pop\n      pop\n      jump\t// out\n        /* \"#utility.yul\":3131:3191   */\n    tag_48:\n        /* \"#utility.yul\":3159:3162   */\n      0x00\n        /* \"#utility.yul\":3180:3185   */\n      dup2\n        /* \"#utility.yul\":3173:3185   */\n      swap1\n      pop\n        /* \"#utility.yul\":3131:3191   */\n      swap2\n      swap1\n      pop\n      jump\t// out\n        /* \"#utility.yul\":3197:3339   */\n    tag_49:\n        /* \"#utility.yul\":3247:3256   */\n      0x00\n        /* \"#utility.yul\":3280:3333   */\n      tag_98\n        /* \"#utility.yul\":3298:3332   */\n      tag_99\n        /* \"#utility.yul\":3307:3331   */\n      tag_100\n        /* \"#utility.yul\":3325:3330   */\n      dup5\n        /* \"#utility.yul\":3307:3331   */\n      tag_44\n      jump\t// in\n    tag_100:\n        /* \"#utility.yul\":3298:3332   */\n      tag_48\n      jump\t// in\n    tag_99:\n        /* \"#utility.yul\":3280:3333   */\n      tag_44\n      jump\t// in\n    tag_98:\n        /* \"#utility.yul\":3267:3333   */\n      swap1\n      pop\n        /* \"#utility.yul\":3197:3339   */\n      swap2\n      swap1\n      pop\n      jump\t// out\n        /* \"#utility.yul\":3345:3471   */\n    tag_50:\n        /* \"#utility.yul\":3395:3404   */\n      0x00\n        /* \"#utility.yul\":3428:3465   */\n      tag_102\n        /* \"#utility.yul\":3459:3464   */\n      dup3\n        /* \"#utility.yul\":3428:3465   */\n      tag_49\n      jump\t// in\n    tag_102:\n        /* \"#utility.yul\":3415:3465   */\n      swap1\n      pop\n        /* \"#utility.yul\":3345:3471   */\n      swap2\n      swap1\n      pop\n      jump\t// out\n        /* \"#utility.yul\":3477:3617   */\n    tag_51:\n        /* \"#utility.yul\":3541:3550   */\n      0x00\n        /* \"#utility.yul\":3574:3611   */\n      tag_104\n        /* \"#utility.yul\":3605:3610   */\n      dup3\n        /* \"#utility.yul\":3574:3611   */\n      tag_50\n      jump\t// in\n    tag_104:\n        /* \"#utility.yul\":3561:3611   */\n      swap1\n      pop\n        /* \"#utility.yul\":3477:3617   */\n      swap2\n      swap1\n      pop\n      jump\t// out\n        /* \"#utility.yul\":3623:3782   */\n    tag_52:\n        /* \"#utility.yul\":3724:3775   */\n      tag_106\n        /* \"#utility.yul\":3769:3774   */\n      dup2\n        /* \"#utility.yul\":3724:3775   */\n      tag_51\n      jump\t// in\n    tag_106:\n        /* \"#utility.yul\":3719:3722   */\n      dup3\n        /* \"#utility.yul\":3712:3776   */\n      mstore\n        /* \"#utility.yul\":3623:3782   */\n      pop\n      pop\n      jump\t// out\n        /* \"#utility.yul\":3788:4038   */\n    tag_17:\n        /* \"#utility.yul\":3895:3899   */\n      0x00\n        /* \"#utility.yul\":3933:3935   */\n      0x20\n        /* \"#utility.yul\":3922:3931   */\n      dup3\n        /* \"#utility.yul\":3918:3936   */\n      add\n        /* \"#utility.yul\":3910:3936   */\n      swap1\n      pop\n        /* \"#utility.yul\":3946:4031   */\n      tag_108\n        /* \"#utility.yul\":4028:4029   */\n      0x00\n        /* \"#utility.yul\":4017:4026   */\n      dup4\n        /* \"#utility.yul\":4013:4030   */\n      add\n        /* \"#utility.yul\":4004:4010   */\n      dup5\n        /* \"#utility.yul\":3946:4031   */\n      tag_52\n      jump\t// in\n    tag_108:\n        /* \"#utility.yul\":3788:4038   */\n      swap3\n      swap2\n      pop\n      pop\n      jump\t// out\n        /* \"#utility.yul\":4044:4161   */\n    tag_53:\n        /* \"#utility.yul\":4153:4154   */\n      0x00\n        /* \"#utility.yul\":4150:4151   */\n      dup1\n        /* \"#utility.yul\":4143:4155   */\n      revert\n        /* \"#utility.yul\":4167:4284   */\n    tag_54:\n        /* \"#utility.yul\":4276:4277   */\n      0x00\n        /* \"#utility.yul\":4273:4274   */\n      dup1\n        /* \"#utility.yul\":4266:4278   */\n      revert\n        /* \"#utility.yul\":4290:4470   */\n    tag_55:\n        /* \"#utility.yul\":4338:4415   */\n      0x4e487b7100000000000000000000000000000000000000000000000000000000\n        /* \"#utility.yul\":4335:4336   */\n      0x00\n        /* \"#utility.yul\":4328:4416   */\n      mstore\n        /* \"#utility.yul\":4435:4439   */\n      0x41\n        /* \"#utility.yul\":4432:4433   */\n      0x04\n        /* \"#utility.yul\":4425:4440   */\n      mstore\n        /* \"#utility.yul\":4459:4463   */\n      0x24\n        /* \"#utility.yul\":4456:4457   */\n      0x00\n        /* \"#utility.yul\":4449:4464   */\n      revert\n        /* \"#utility.yul\":4476:4757   */\n    tag_56:\n        /* \"#utility.yul\":4559:4586   */\n      tag_113\n        /* \"#utility.yul\":4581:4585   */\n      dup3\n        /* \"#utility.yul\":4559:4586   */\n      tag_37\n      jump\t// in\n    tag_113:\n        /* \"#utility.yul\":4551:4557   */\n      dup2\n        /* \"#utility.yul\":4547:4587   */\n      add\n        /* \"#utility.yul\":4689:4695   */\n      dup2\n        /* \"#utility.yul\":4677:4687   */\n      dup2\n        /* \"#utility.yul\":4674:4696   */\n      lt\n        /* \"#utility.yul\":4653:4671   */\n      0xffffffffffffffff\n        /* \"#utility.yul\":4641:4651   */\n      dup3\n        /* \"#utility.yul\":4638:4672   */\n      gt\n        /* \"#utility.yul\":4635:4697   */\n      or\n        /* \"#utility.yul\":4632:4720   */\n      iszero\n      tag_114\n      jumpi\n        /* \"#utility.yul\":4700:4718   */\n      tag_115\n      tag_55\n      jump\t// in\n    tag_115:\n        /* \"#utility.yul\":4632:4720   */\n    tag_114:\n        /* \"#utility.yul\":4740:4750   */\n      dup1\n        /* \"#utility.yul\":4736:4738   */\n      0x40\n        /* \"#utility.yul\":4729:4751   */\n      mstore\n        /* \"#utility.yul\":4519:4757   */\n      pop\n        /* \"#utility.yul\":4476:4757   */\n      pop\n      pop\n      jump\t// out\n        /* \"#utility.yul\":4763:4892   */\n    tag_57:\n        /* \"#utility.yul\":4797:4803   */\n      0x00\n        /* \"#utility.yul\":4824:4844   */\n      tag_117\n      tag_41\n      jump\t// in\n    tag_117:\n        /* \"#utility.yul\":4814:4844   */\n      swap1\n      pop\n        /* \"#utility.yul\":4853:4886   */\n      tag_118\n        /* \"#utility.yul\":4881:4885   */\n      dup3\n        /* \"#utility.yul\":4873:4879   */\n      dup3\n        /* \"#utility.yul\":4853:4886   */\n      tag_56\n      jump\t// in\n    tag_118:\n        /* \"#utility.yul\":4763:4892   */\n      swap2\n      swap1\n      pop\n      jump\t// out\n        /* \"#utility.yul\":4898:5206   */\n    tag_58:\n        /* \"#utility.yul\":4960:4964   */\n      0x00\n        /* \"#utility.yul\":5050:5068   */\n      0xffffffffffffffff\n        /* \"#utility.yul\":5042:5048   */\n      dup3\n        /* \"#utility.yul\":5039:5069   */\n      gt\n        /* \"#utility.yul\":5036:5092   */\n      iszero\n      tag_120\n      jumpi\n        /* \"#utility.yul\":5072:5090   */\n      tag_121\n      tag_55\n      jump\t// in\n    tag_121:\n        /* \"#utility.yul\":5036:5092   */\n    tag_120:\n        /* \"#utility.yul\":5110:5139   */\n      tag_122\n        /* \"#utility.yul\":5132:5138   */\n      dup3\n        /* \"#utility.yul\":5110:5139   */\n      tag_37\n      jump\t// in\n    tag_122:\n        /* \"#utility.yul\":5102:5139   */\n      swap1\n      pop\n        /* \"#utility.yul\":5194:5198   */\n      0x20\n        /* \"#utility.yul\":5188:5192   */\n      dup2\n        /* \"#utility.yul\":5184:5199   */\n      add\n        /* \"#utility.yul\":5176:5199   */\n      swap1\n      pop\n        /* \"#utility.yul\":4898:5206   */\n      swap2\n      swap1\n      pop\n      jump\t// out\n        /* \"#utility.yul\":5212:5646   */\n    tag_59:\n        /* \"#utility.yul\":5301:5306   */\n      0x00\n        /* \"#utility.yul\":5326:5392   */\n      tag_124\n        /* \"#utility.yul\":5342:5391   */\n      tag_125\n        /* \"#utility.yul\":5384:5390   */\n      dup5\n        /* \"#utility.yul\":5342:5391   */\n      tag_58\n      jump\t// in\n    tag_125:\n        /* \"#utility.yul\":5326:5392   */\n      tag_57\n      jump\t// in\n    tag_124:\n        /* \"#utility.yul\":5317:5392   */\n      swap1\n      pop\n        /* \"#utility.yul\":5415:5421   */\n      dup3\n        /* \"#utility.yul\":5408:5413   */\n      dup2\n        /* \"#utility.yul\":5401:5422   */\n      mstore\n        /* \"#utility.yul\":5453:5457   */\n      0x20\n        /* \"#utility.yul\":5446:5451   */\n      dup2\n        /* \"#utility.yul\":5442:5458   */\n      add\n        /* \"#utility.yul\":5491:5494   */\n      dup5\n        /* \"#utility.yul\":5482:5488   */\n      dup5\n        /* \"#utility.yul\":5477:5480   */\n      dup5\n        /* \"#utility.yul\":5473:5489   */\n      add\n        /* \"#utility.yul\":5470:5495   */\n      gt\n        /* \"#utility.yul\":5467:5579   */\n      iszero\n      tag_126\n      jumpi\n        /* \"#utility.yul\":5498:5577   */\n      tag_127\n      tag_54\n      jump\t// in\n    tag_127:\n        /* \"#utility.yul\":5467:5579   */\n    tag_126:\n        /* \"#utility.yul\":5588:5640   */\n      tag_128\n        /* \"#utility.yul\":5633:5639   */\n      dup5\n        /* \"#utility.yul\":5628:5631   */\n      dup3\n        /* \"#utility.yul\":5623:5626   */\n      dup6\n        /* \"#utility.yul\":5588:5640   */\n      tag_36\n      jump\t// in\n    tag_128:\n        /* \"#utility.yul\":5307:5646   */\n      pop\n        /* \"#utility.yul\":5212:5646   */\n      swap4\n      swap3\n      pop\n      pop\n      pop\n      jump\t// out\n        /* \"#utility.yul\":5666:6021   */\n    tag_60:\n        /* \"#utility.yul\":5733:5738   */\n      0x00\n        /* \"#utility.yul\":5782:5785   */\n      dup3\n        /* \"#utility.yul\":5775:5779   */\n      0x1f\n        /* \"#utility.yul\":5767:5773   */\n      dup4\n        /* \"#utility.yul\":5763:5780   */\n      add\n        /* \"#utility.yul\":5759:5786   */\n      slt\n        /* \"#utility.yul\":5749:5871   */\n      tag_130\n      jumpi\n        /* \"#utility.yul\":5790:5869   */\n      tag_131\n      tag_53\n      jump\t// in\n    tag_131:\n        /* \"#utility.yul\":5749:5871   */\n    tag_130:\n        /* \"#utility.yul\":5900:5906   */\n      dup2\n        /* \"#utility.yul\":5894:5907   */\n      mload\n        /* \"#utility.yul\":5925:6015   */\n      tag_132\n        /* \"#utility.yul\":6011:6014   */\n      dup5\n        /* \"#utility.yul\":6003:6009   */\n      dup3\n        /* \"#utility.yul\":5996:6000   */\n      0x20\n        /* \"#utility.yul\":5988:5994   */\n      dup7\n        /* \"#utility.yul\":5984:6001   */\n      add\n        /* \"#utility.yul\":5925:6015   */\n      tag_59\n      jump\t// in\n    tag_132:\n        /* \"#utility.yul\":5916:6015   */\n      swap2\n      pop\n        /* \"#utility.yul\":5739:6021   */\n      pop\n        /* \"#utility.yul\":5666:6021   */\n      swap3\n      swap2\n      pop\n      pop\n      jump\t// out\n        /* \"#utility.yul\":6027:6551   */\n    tag_22:\n        /* \"#utility.yul\":6107:6113   */\n      0x00\n        /* \"#utility.yul\":6156:6158   */\n      0x20\n        /* \"#utility.yul\":6144:6153   */\n      dup3\n        /* \"#utility.yul\":6135:6142   */\n      dup5\n        /* \"#utility.yul\":6131:6154   */\n      sub\n        /* \"#utility.yul\":6127:6159   */\n      slt\n        /* \"#utility.yul\":6124:6243   */\n      iszero\n      tag_134\n      jumpi\n        /* \"#utility.yul\":6162:6241   */\n      tag_135\n      tag_42\n      jump\t// in\n    tag_135:\n        /* \"#utility.yul\":6124:6243   */\n    tag_134:\n        /* \"#utility.yul\":6303:6304   */\n      0x00\n        /* \"#utility.yul\":6292:6301   */\n      dup3\n        /* \"#utility.yul\":6288:6305   */\n      add\n        /* \"#utility.yul\":6282:6306   */\n      mload\n        /* \"#utility.yul\":6333:6351   */\n      0xffffffffffffffff\n        /* \"#utility.yul\":6325:6331   */\n      dup2\n        /* \"#utility.yul\":6322:6352   */\n      gt\n        /* \"#utility.yul\":6319:6436   */\n      iszero\n      tag_136\n      jumpi\n        /* \"#utility.yul\":6355:6434   */\n      tag_137\n      tag_43\n      jump\t// in\n    tag_137:\n        /* \"#utility.yul\":6319:6436   */\n    tag_136:\n        /* \"#utility.yul\":6460:6534   */\n      tag_138\n        /* \"#utility.yul\":6526:6533   */\n      dup5\n        /* \"#utility.yul\":6517:6523   */\n      dup3\n        /* \"#utility.yul\":6506:6515   */\n      dup6\n        /* \"#utility.yul\":6502:6524   */\n      add\n        /* \"#utility.yul\":6460:6534   */\n      tag_60\n      jump\t// in\n    tag_138:\n        /* \"#utility.yul\":6450:6534   */\n      swap2\n      pop\n        /* \"#utility.yul\":6253:6544   */\n      pop\n        /* \"#utility.yul\":6027:6551   */\n      swap3\n      swap2\n      pop\n      pop\n      jump\t// out\n        /* \"#utility.yul\":6557:6679   */\n    tag_61:\n        /* \"#utility.yul\":6630:6654   */\n      tag_140\n        /* \"#utility.yul\":6648:6653   */\n      dup2\n        /* \"#utility.yul\":6630:6654   */\n      tag_39\n      jump\t// in\n    tag_140:\n        /* \"#utility.yul\":6623:6628   */\n      dup2\n        /* \"#utility.yul\":6620:6655   */\n      eq\n        /* \"#utility.yul\":6610:6673   */\n      tag_141\n      jumpi\n        /* \"#utility.yul\":6669:6670   */\n      0x00\n        /* \"#utility.yul\":6666:6667   */\n      dup1\n        /* \"#utility.yul\":6659:6671   */\n      revert\n        /* \"#utility.yul\":6610:6673   */\n    tag_141:\n        /* \"#utility.yul\":6557:6679   */\n      pop\n      jump\t// out\n        /* \"#utility.yul\":6685:6828   */\n    tag_62:\n        /* \"#utility.yul\":6742:6747   */\n      0x00\n        /* \"#utility.yul\":6773:6779   */\n      dup2\n        /* \"#utility.yul\":6767:6780   */\n      mload\n        /* \"#utility.yul\":6758:6780   */\n      swap1\n      pop\n        /* \"#utility.yul\":6789:6822   */\n      tag_143\n        /* \"#utility.yul\":6816:6821   */\n      dup2\n        /* \"#utility.yul\":6789:6822   */\n      tag_61\n      jump\t// in\n    tag_143:\n        /* \"#utility.yul\":6685:6828   */\n      swap3\n      swap2\n      pop\n      pop\n      jump\t// out\n        /* \"#utility.yul\":6834:7185   */\n    tag_32:\n        /* \"#utility.yul\":6904:6910   */\n      0x00\n        /* \"#utility.yul\":6953:6955   */\n      0x20\n        /* \"#utility.yul\":6941:6950   */\n      dup3\n        /* \"#utility.yul\":6932:6939   */\n      dup5\n        /* \"#utility.yul\":6928:6951   */\n      sub\n        /* \"#utility.yul\":6924:6956   */\n      slt\n        /* \"#utility.yul\":6921:7040   */\n      iszero\n      tag_145\n      jumpi\n        /* \"#utility.yul\":6959:7038   */\n      tag_146\n      tag_42\n      jump\t// in\n    tag_146:\n        /* \"#utility.yul\":6921:7040   */\n    tag_145:\n        /* \"#utility.yul\":7079:7080   */\n      0x00\n        /* \"#utility.yul\":7104:7168   */\n      tag_147\n        /* \"#utility.yul\":7160:7167   */\n      dup5\n        /* \"#utility.yul\":7151:7157   */\n      dup3\n        /* \"#utility.yul\":7140:7149   */\n      dup6\n        /* \"#utility.yul\":7136:7158   */\n      add\n        /* \"#utility.yul\":7104:7168   */\n      tag_62\n      jump\t// in\n    tag_147:\n        /* \"#utility.yul\":7094:7168   */\n      swap2\n      pop\n        /* \"#utility.yul\":7050:7178   */\n      pop\n        /* \"#utility.yul\":6834:7185   */\n      swap3\n      swap2\n      pop\n      pop\n      jump\t// out\n\n    auxdata: 0xa264697066735822122028a529cafd4dcc099bb015cfc6933e5f860d98e3b23a8df1c9b4cf70744ca3d564736f6c634300081a0033\n}\n",
				"bytecode": {
					"linkReferences": {},
					"object": "6080604052348015600e575f80fd5b5061072b8061001c5f395ff3fe608060405234801561000f575f80fd5b506004361061003f575f3560e01c8063bff988e914610043578063cb5debd114610064578063eada0edb14610080575b5f80fd5b61004b61009e565b60405161005b94939291906103d9565b60405180910390f35b61007e6004803603810190610079919061049c565b6102ec565b005b61008861032e565b6040516100959190610522565b60405180910390f35b60608060605f805f9054906101000a900473ffffffffffffffffffffffffffffffffffffffff1673ffffffffffffffffffffffffffffffffffffffff16634aa7a2996040518163ffffffff1660e01b81526004015f60405180830381865afa15801561010c573d5f803e3d5ffd5b505050506040513d5f823e3d601f19601f820116820180604052508101906101349190610659565b93505f8054906101000a900473ffffffffffffffffffffffffffffffffffffffff1673ffffffffffffffffffffffffffffffffffffffff1663192e050d6040518163ffffffff1660e01b81526004015f60405180830381865afa15801561019d573d5f803e3d5ffd5b505050506040513d5f823e3d601f19601f820116820180604052508101906101c59190610659565b92505f8054906101000a900473ffffffffffffffffffffffffffffffffffffffff1673ffffffffffffffffffffffffffffffffffffffff1663d75cbf9b6040518163ffffffff1660e01b81526004015f60405180830381865afa15801561022e573d5f803e3d5ffd5b505050506040513d5f823e3d601f19601f820116820180604052508101906102569190610659565b91505f8054906101000a900473ffffffffffffffffffffffffffffffffffffffff1673ffffffffffffffffffffffffffffffffffffffff16635cfd4af56040518163ffffffff1660e01b8152600401602060405180830381865afa1580156102c0573d5f803e3d5ffd5b505050506040513d601f19601f820116820180604052508101906102e491906106ca565b905090919293565b805f806101000a81548173ffffffffffffffffffffffffffffffffffffffff021916908373ffffffffffffffffffffffffffffffffffffffff16021790555050565b5f8054906101000a900473ffffffffffffffffffffffffffffffffffffffff1681565b5f81519050919050565b5f82825260208201905092915050565b8281835e5f83830152505050565b5f601f19601f8301169050919050565b5f61039382610351565b61039d818561035b565b93506103ad81856020860161036b565b6103b681610379565b840191505092915050565b5f819050919050565b6103d3816103c1565b82525050565b5f6080820190508181035f8301526103f18187610389565b905081810360208301526104058186610389565b905081810360408301526104198185610389565b905061042860608301846103ca565b95945050505050565b5f604051905090565b5f80fd5b5f80fd5b5f73ffffffffffffffffffffffffffffffffffffffff82169050919050565b5f61046b82610442565b9050919050565b61047b81610461565b8114610485575f80fd5b50565b5f8135905061049681610472565b92915050565b5f602082840312156104b1576104b061043a565b5b5f6104be84828501610488565b91505092915050565b5f819050919050565b5f6104ea6104e56104e084610442565b6104c7565b610442565b9050919050565b5f6104fb826104d0565b9050919050565b5f61050c826104f1565b9050919050565b61051c81610502565b82525050565b5f6020820190506105355f830184610513565b92915050565b5f80fd5b5f80fd5b7f4e487b71000000000000000000000000000000000000000000000000000000005f52604160045260245ffd5b61057982610379565b810181811067ffffffffffffffff8211171561059857610597610543565b5b80604052505050565b5f6105aa610431565b90506105b68282610570565b919050565b5f67ffffffffffffffff8211156105d5576105d4610543565b5b6105de82610379565b9050602081019050919050565b5f6105fd6105f8846105bb565b6105a1565b9050828152602081018484840111156106195761061861053f565b5b61062484828561036b565b509392505050565b5f82601f8301126106405761063f61053b565b5b81516106508482602086016105eb565b91505092915050565b5f6020828403121561066e5761066d61043a565b5b5f82015167ffffffffffffffff81111561068b5761068a61043e565b5b6106978482850161062c565b91505092915050565b6106a9816103c1565b81146106b3575f80fd5b50565b5f815190506106c4816106a0565b92915050565b5f602082840312156106df576106de61043a565b5b5f6106ec848285016106b6565b9150509291505056fea264697066735822122028a529cafd4dcc099bb015cfc6933e5f860d98e3b23a8df1c9b4cf70744ca3d564736f6c634300081a0033",
					"opcodes": "PUSH1 0x80 PUSH1 0x40 MSTORE CALLVALUE DUP1 ISZERO PUSH1 0xE JUMPI PUSH0 DUP1 REVERT JUMPDEST POP PUSH2 0x72B DUP1 PUSH2 0x1C PUSH0 CODECOPY PUSH0 RETURN INVALID PUSH1 0x80 PUSH1 0x40 MSTORE CALLVALUE DUP1 ISZERO PUSH2 0xF JUMPI PUSH0 DUP1 REVERT JUMPDEST POP PUSH1 0x4 CALLDATASIZE LT PUSH2 0x3F JUMPI PUSH0 CALLDATALOAD PUSH1 0xE0 SHR DUP1 PUSH4 0xBFF988E9 EQ PUSH2 0x43 JUMPI DUP1 PUSH4 0xCB5DEBD1 EQ PUSH2 0x64 JUMPI DUP1 PUSH4 0xEADA0EDB EQ PUSH2 0x80 JUMPI JUMPDEST PUSH0 DUP1 REVERT JUMPDEST PUSH2 0x4B PUSH2 0x9E JUMP JUMPDEST PUSH1 0x40 MLOAD PUSH2 0x5B SWAP5 SWAP4 SWAP3 SWAP2 SWAP1 PUSH2 0x3D9 JUMP JUMPDEST PUSH1 0x40 MLOAD DUP1 SWAP2 SUB SWAP1 RETURN JUMPDEST PUSH2 0x7E PUSH1 0x4 DUP1 CALLDATASIZE SUB DUP2 ADD SWAP1 PUSH2 0x79 SWAP2 SWAP1 PUSH2 0x49C JUMP JUMPDEST PUSH2 0x2EC JUMP JUMPDEST STOP JUMPDEST PUSH2 0x88 PUSH2 0x32E JUMP JUMPDEST PUSH1 0x40 MLOAD PUSH2 0x95 SWAP2 SWAP1 PUSH2 0x522 JUMP JUMPDEST PUSH1 0x40 MLOAD DUP1 SWAP2 SUB SWAP1 RETURN JUMPDEST PUSH1 0x60 DUP1 PUSH1 0x60 PUSH0 DUP1 PUSH0 SWAP1 SLOAD SWAP1 PUSH2 0x100 EXP SWAP1 DIV PUSH20 0xFFFFFFFFFFFFFFFFFFFFFFFFFFFFFFFFFFFFFFFF AND PUSH20 0xFFFFFFFFFFFFFFFFFFFFFFFFFFFFFFFFFFFFFFFF AND PUSH4 0x4AA7A299 PUSH1 0x40 MLOAD DUP2 PUSH4 0xFFFFFFFF AND PUSH1 0xE0 SHL DUP2 MSTORE PUSH1 0x4 ADD PUSH0 PUSH1 0x40 MLOAD DUP1 DUP4 SUB DUP2 DUP7 GAS STATICCALL ISZERO DUP1 ISZERO PUSH2 0x10C JUMPI RETURNDATASIZE PUSH0 DUP1 RETURNDATACOPY RETURNDATASIZE PUSH0 REVERT JUMPDEST POP POP POP POP PUSH1 0x40 MLOAD RETURNDATASIZE PUSH0 DUP3 RETURNDATACOPY RETURNDATASIZE PUSH1 0x1F NOT PUSH1 0x1F DUP3 ADD AND DUP3 ADD DUP1 PUSH1 0x40 MSTORE POP DUP2 ADD SWAP1 PUSH2 0x134 SWAP2 SWAP1 PUSH2 0x659 JUMP JUMPDEST SWAP4 POP PUSH0 DUP1 SLOAD SWAP1 PUSH2 0x100 EXP SWAP1 DIV PUSH20 0xFFFFFFFFFFFFFFFFFFFFFFFFFFFFFFFFFFFFFFFF AND PUSH20 0xFFFFFFFFFFFFFFFFFFFFFFFFFFFFFFFFFFFFFFFF AND PUSH4 0x192E050D PUSH1 0x40 MLOAD DUP2 PUSH4 0xFFFFFFFF AND PUSH1 0xE0 SHL DUP2 MSTORE PUSH1 0x4 ADD PUSH0 PUSH1 0x40 MLOAD DUP1 DUP4 SUB DUP2 DUP7 GAS STATICCALL ISZERO DUP1 ISZERO PUSH2 0x19D JUMPI RETURNDATASIZE PUSH0 DUP1 RETURNDATACOPY RETURNDATASIZE PUSH0 REVERT JUMPDEST POP POP POP POP PUSH1 0x40 MLOAD RETURNDATASIZE PUSH0 DUP3 RETURNDATACOPY RETURNDATASIZE PUSH1 0x1F NOT PUSH1 0x1F DUP3 ADD AND DUP3 ADD DUP1 PUSH1 0x40 MSTORE POP DUP2 ADD SWAP1 PUSH2 0x1C5 SWAP2 SWAP1 PUSH2 0x659 JUMP JUMPDEST SWAP3 POP PUSH0 DUP1 SLOAD SWAP1 PUSH2 0x100 EXP SWAP1 DIV PUSH20 0xFFFFFFFFFFFFFFFFFFFFFFFFFFFFFFFFFFFFFFFF AND PUSH20 0xFFFFFFFFFFFFFFFFFFFFFFFFFFFFFFFFFFFFFFFF AND PUSH4 0xD75CBF9B PUSH1 0x40 MLOAD DUP2 PUSH4 0xFFFFFFFF AND PUSH1 0xE0 SHL DUP2 MSTORE PUSH1 0x4 ADD PUSH0 PUSH1 0x40 MLOAD DUP1 DUP4 SUB DUP2 DUP7 GAS STATICCALL ISZERO DUP1 ISZERO PUSH2 0x22E JUMPI RETURNDATASIZE PUSH0 DUP1 RETURNDATACOPY RETURNDATASIZE PUSH0 REVERT JUMPDEST POP POP POP POP PUSH1 0x40 MLOAD RETURNDATASIZE PUSH0 DUP3 RETURNDATACOPY RETURNDATASIZE PUSH1 0x1F NOT PUSH1 0x1F DUP3 ADD AND DUP3 ADD DUP1 PUSH1 0x40 MSTORE POP DUP2 ADD SWAP1 PUSH2 0x256 SWAP2 SWAP1 PUSH2 0x659 JUMP JUMPDEST SWAP2 POP PUSH0 DUP1 SLOAD SWAP1 PUSH2 0x100 EXP SWAP1 DIV PUSH20 0xFFFFFFFFFFFFFFFFFFFFFFFFFFFFFFFFFFFFFFFF AND PUSH20 0xFFFFFFFFFFFFFFFFFFFFFFFFFFFFFFFFFFFFFFFF AND PUSH4 0x5CFD4AF5 PUSH1 0x40 MLOAD DUP2 PUSH4 0xFFFFFFFF AND PUSH1 0xE0 SHL DUP2 MSTORE PUSH1 0x4 ADD PUSH1 0x20 PUSH1 0x40 MLOAD DUP1 DUP4 SUB DUP2 DUP7 GAS STATICCALL ISZERO DUP1 ISZERO PUSH2 0x2C0 JUMPI RETURNDATASIZE PUSH0 DUP1 RETURNDATACOPY RETURNDATASIZE PUSH0 REVERT JUMPDEST POP POP POP POP PUSH1 0x40 MLOAD RETURNDATASIZE PUSH1 0x1F NOT PUSH1 0x1F DUP3 ADD AND DUP3 ADD DUP1 PUSH1 0x40 MSTORE POP DUP2 ADD SWAP1 PUSH2 0x2E4 SWAP2 SWAP1 PUSH2 0x6CA JUMP JUMPDEST SWAP1 POP SWAP1 SWAP2 SWAP3 SWAP4 JUMP JUMPDEST DUP1 PUSH0 DUP1 PUSH2 0x100 EXP DUP2 SLOAD DUP2 PUSH20 0xFFFFFFFFFFFFFFFFFFFFFFFFFFFFFFFFFFFFFFFF MUL NOT AND SWAP1 DUP4 PUSH20 0xFFFFFFFFFFFFFFFFFFFFFFFFFFFFFFFFFFFFFFFF AND MUL OR SWAP1 SSTORE POP POP JUMP JUMPDEST PUSH0 DUP1 SLOAD SWAP1 PUSH2 0x100 EXP SWAP1 DIV PUSH20 0xFFFFFFFFFFFFFFFFFFFFFFFFFFFFFFFFFFFFFFFF AND DUP2 JUMP JUMPDEST PUSH0 DUP2 MLOAD SWAP1 POP SWAP2 SWAP1 POP JUMP JUMPDEST PUSH0 DUP3 DUP3 MSTORE PUSH1 0x20 DUP3 ADD SWAP1 POP SWAP3 SWAP2 POP POP JUMP JUMPDEST DUP3 DUP2 DUP4 MCOPY PUSH0 DUP4 DUP4 ADD MSTORE POP POP POP JUMP JUMPDEST PUSH0 PUSH1 0x1F NOT PUSH1 0x1F DUP4 ADD AND SWAP1 POP SWAP2 SWAP1 POP JUMP JUMPDEST PUSH0 PUSH2 0x393 DUP3 PUSH2 0x351 JUMP JUMPDEST PUSH2 0x39D DUP2 DUP6 PUSH2 0x35B JUMP JUMPDEST SWAP4 POP PUSH2 0x3AD DUP2 DUP6 PUSH1 0x20 DUP7 ADD PUSH2 0x36B JUMP JUMPDEST PUSH2 0x3B6 DUP2 PUSH2 0x379 JUMP JUMPDEST DUP5 ADD SWAP2 POP POP SWAP3 SWAP2 POP POP JUMP JUMPDEST PUSH0 DUP2 SWAP1 POP SWAP2 SWAP1 POP JUMP JUMPDEST PUSH2 0x3D3 DUP2 PUSH2 0x3C1 JUMP JUMPDEST DUP3 MSTORE POP POP JUMP JUMPDEST PUSH0 PUSH1 0x80 DUP3 ADD SWAP1 POP DUP2 DUP2 SUB PUSH0 DUP4 ADD MSTORE PUSH2 0x3F1 DUP2 DUP8 PUSH2 0x389 JUMP JUMPDEST SWAP1 POP DUP2 DUP2 SUB PUSH1 0x20 DUP4 ADD MSTORE PUSH2 0x405 DUP2 DUP7 PUSH2 0x389 JUMP JUMPDEST SWAP1 POP DUP2 DUP2 SUB PUSH1 0x40 DUP4 ADD MSTORE PUSH2 0x419 DUP2 DUP6 PUSH2 0x389 JUMP JUMPDEST SWAP1 POP PUSH2 0x428 PUSH1 0x60 DUP4 ADD DUP5 PUSH2 0x3CA JUMP JUMPDEST SWAP6 SWAP5 POP POP POP POP POP JUMP JUMPDEST PUSH0 PUSH1 0x40 MLOAD SWAP1 POP SWAP1 JUMP JUMPDEST PUSH0 DUP1 REVERT JUMPDEST PUSH0 DUP1 REVERT JUMPDEST PUSH0 PUSH20 0xFFFFFFFFFFFFFFFFFFFFFFFFFFFFFFFFFFFFFFFF DUP3 AND SWAP1 POP SWAP2 SWAP1 POP JUMP JUMPDEST PUSH0 PUSH2 0x46B DUP3 PUSH2 0x442 JUMP JUMPDEST SWAP1 POP SWAP2 SWAP1 POP JUMP JUMPDEST PUSH2 0x47B DUP2 PUSH2 0x461 JUMP JUMPDEST DUP2 EQ PUSH2 0x485 JUMPI PUSH0 DUP1 REVERT JUMPDEST POP JUMP JUMPDEST PUSH0 DUP2 CALLDATALOAD SWAP1 POP PUSH2 0x496 DUP2 PUSH2 0x472 JUMP JUMPDEST SWAP3 SWAP2 POP POP JUMP JUMPDEST PUSH0 PUSH1 0x20 DUP3 DUP5 SUB SLT ISZERO PUSH2 0x4B1 JUMPI PUSH2 0x4B0 PUSH2 0x43A JUMP JUMPDEST JUMPDEST PUSH0 PUSH2 0x4BE DUP5 DUP3 DUP6 ADD PUSH2 0x488 JUMP JUMPDEST SWAP2 POP POP SWAP3 SWAP2 POP POP JUMP JUMPDEST PUSH0 DUP2 SWAP1 POP SWAP2 SWAP1 POP JUMP JUMPDEST PUSH0 PUSH2 0x4EA PUSH2 0x4E5 PUSH2 0x4E0 DUP5 PUSH2 0x442 JUMP JUMPDEST PUSH2 0x4C7 JUMP JUMPDEST PUSH2 0x442 JUMP JUMPDEST SWAP1 POP SWAP2 SWAP1 POP JUMP JUMPDEST PUSH0 PUSH2 0x4FB DUP3 PUSH2 0x4D0 JUMP JUMPDEST SWAP1 POP SWAP2 SWAP1 POP JUMP JUMPDEST PUSH0 PUSH2 0x50C DUP3 PUSH2 0x4F1 JUMP JUMPDEST SWAP1 POP SWAP2 SWAP1 POP JUMP JUMPDEST PUSH2 0x51C DUP2 PUSH2 0x502 JUMP JUMPDEST DUP3 MSTORE POP POP JUMP JUMPDEST PUSH0 PUSH1 0x20 DUP3 ADD SWAP1 POP PUSH2 0x535 PUSH0 DUP4 ADD DUP5 PUSH2 0x513 JUMP JUMPDEST SWAP3 SWAP2 POP POP JUMP JUMPDEST PUSH0 DUP1 REVERT JUMPDEST PUSH0 DUP1 REVERT JUMPDEST PUSH32 0x4E487B7100000000000000000000000000000000000000000000000000000000 PUSH0 MSTORE PUSH1 0x41 PUSH1 0x4 MSTORE PUSH1 0x24 PUSH0 REVERT JUMPDEST PUSH2 0x579 DUP3 PUSH2 0x379 JUMP JUMPDEST DUP2 ADD DUP2 DUP2 LT PUSH8 0xFFFFFFFFFFFFFFFF DUP3 GT OR ISZERO PUSH2 0x598 JUMPI PUSH2 0x597 PUSH2 0x543 JUMP JUMPDEST JUMPDEST DUP1 PUSH1 0x40 MSTORE POP POP POP JUMP JUMPDEST PUSH0 PUSH2 0x5AA PUSH2 0x431 JUMP JUMPDEST SWAP1 POP PUSH2 0x5B6 DUP3 DUP3 PUSH2 0x570 JUMP JUMPDEST SWAP2 SWAP1 POP JUMP JUMPDEST PUSH0 PUSH8 0xFFFFFFFFFFFFFFFF DUP3 GT ISZERO PUSH2 0x5D5 JUMPI PUSH2 0x5D4 PUSH2 0x543 JUMP JUMPDEST JUMPDEST PUSH2 0x5DE DUP3 PUSH2 0x379 JUMP JUMPDEST SWAP1 POP PUSH1 0x20 DUP2 ADD SWAP1 POP SWAP2 SWAP1 POP JUMP JUMPDEST PUSH0 PUSH2 0x5FD PUSH2 0x5F8 DUP5 PUSH2 0x5BB JUMP JUMPDEST PUSH2 0x5A1 JUMP JUMPDEST SWAP1 POP DUP3 DUP2 MSTORE PUSH1 0x20 DUP2 ADD DUP5 DUP5 DUP5 ADD GT ISZERO PUSH2 0x619 JUMPI PUSH2 0x618 PUSH2 0x53F JUMP JUMPDEST JUMPDEST PUSH2 0x624 DUP5 DUP3 DUP6 PUSH2 0x36B JUMP JUMPDEST POP SWAP4 SWAP3 POP POP POP JUMP JUMPDEST PUSH0 DUP3 PUSH1 0x1F DUP4 ADD SLT PUSH2 0x640 JUMPI PUSH2 0x63F PUSH2 0x53B JUMP JUMPDEST JUMPDEST DUP2 MLOAD PUSH2 0x650 DUP5 DUP3 PUSH1 0x20 DUP7 ADD PUSH2 0x5EB JUMP JUMPDEST SWAP2 POP POP SWAP3 SWAP2 POP POP JUMP JUMPDEST PUSH0 PUSH1 0x20 DUP3 DUP5 SUB SLT ISZERO PUSH2 0x66E JUMPI PUSH2 0x66D PUSH2 0x43A JUMP JUMPDEST JUMPDEST PUSH0 DUP3 ADD MLOAD PUSH8 0xFFFFFFFFFFFFFFFF DUP2 GT ISZERO PUSH2 0x68B JUMPI PUSH2 0x68A PUSH2 0x43E JUMP JUMPDEST JUMPDEST PUSH2 0x697 DUP5 DUP3 DUP6 ADD PUSH2 0x62C JUMP JUMPDEST SWAP2 POP POP SWAP3 SWAP2 POP POP JUMP JUMPDEST PUSH2 0x6A9 DUP2 PUSH2 0x3C1 JUMP JUMPDEST DUP2 EQ PUSH2 0x6B3 JUMPI PUSH0 DUP1 REVERT JUMPDEST POP JUMP JUMPDEST PUSH0 DUP2 MLOAD SWAP1 POP PUSH2 0x6C4 DUP2 PUSH2 0x6A0 JUMP JUMPDEST SWAP3 SWAP2 POP POP JUMP JUMPDEST PUSH0 PUSH1 0x20 DUP3 DUP5 SUB SLT ISZERO PUSH2 0x6DF JUMPI PUSH2 0x6DE PUSH2 0x43A JUMP JUMPDEST JUMPDEST PUSH0 PUSH2 0x6EC DUP5 DUP3 DUP6 ADD PUSH2 0x6B6 JUMP JUMPDEST SWAP2 POP POP SWAP3 SWAP2 POP POP JUMP INVALID LOG2 PUSH5 0x6970667358 0x22 SLT KECCAK256 0x28 0xA5 0x29 0xCA REVERT 0x4D 0xCC MULMOD SWAP12 0xB0 ISZERO 0xCF 0xC6 SWAP4 RETURNDATACOPY PUSH0 DUP7 0xD SWAP9 0xE3 0xB2 GASPRICE DUP14 CALL 0xC9 0xB4 0xCF PUSH17 0x744CA3D564736F6C634300081A00330000 "
				},
				"gasEstimates": {
					"creation": {
						"codeDepositCost": "367000",
						"executionCost": "403",
						"totalCost": "367403"
					},
					"external": {
						"animal()": "infinite",
						"interactuarConAnimal()": "infinite",
						"setAnimal(address)": "24715"
					}
				},
				"methodIdentifiers": {
					"animal()": "eada0edb",
					"interactuarConAnimal()": "bff988e9",
					"setAnimal(address)": "cb5debd1"
				}
			},
			"storageLayout": {
				"storage": [
					{
						"astId": 5,
						"contract": "interfaces/animales/AnimalHandler.sol:AnimalHandler",
						"label": "animal",
						"offset": 0,
						"slot": "0",
						"type": "t_contract(IAnimal)83"
					}
				],
				"types": {
					"t_contract(IAnimal)83": {
						"encoding": "inplace",
						"label": "contract IAnimal",
						"numberOfBytes": "20"
					}
				}
			},
			"userdoc": {
				"kind": "user",
				"methods": {},
				"version": 1
			}
		}
	}
}